:1000000000308A0019280000213084008313000882
:10001000031918280130F800F701F70B0D28F80B29
:100020000C284A30F700F70B13281628800B0A28F3
:10003000080003081F39830007309F008313003036
:100040008316860086016F3083128600C830A100B7
:100050000420831686017F3083128600C830A100F9
:10006000042083168601073083128600C830A10061
:100070000420831686017D3083128600C830A100DB
:100080000420831686016D3083128600C830A100DB
:10009000042083168601663083128600C830A100D2
:1000A0000420831686014F3083128600C830A100D9
:1000B0000420831686015B3083128600C830A100BD
:1000C000042083168601063083128600C830A10002
:1000D0000420831686013F3083128600C830A100B9
:0800E0000420831622286300AE
:02400E00613F10
:00000001FF
;PIC16F628A
;CRC=6904  CREATED="07-Haz-18 22:46"
