:1000000000308A00392800002B080739F7002B0C34
:10001000F800F80CF80C1F30F80578082D0784005C
:1000200083132E188317F801F80AF70A1828F80D19
:10003000F70B1728AC080319202878088004232818
:10004000F8097808800508002B3084008313000825
:10005000031938280130F800F701F70B2D28F80BA9
:100060002C284A30F700F70B33283628800B2A2833
:10007000080003081F39830083161F149F141F15DF
:100080009F1107309C008313003086008312A1016A
:100090003030A2003130A3003230A4003330A5004C
:1000A0003430A6003530A7003630A8003730A9001C
:1000B000A1012108073C031C92282230210784005B
:1000C00083130008AA00AB000130AC00AE01AD0103
:1000D00004202A08AB00AC01AE018030AD00042042
:1000E0000430AA00FA30AB002420AA0B7228223078
:1000F0002107840083130008AA00AB00AC01AE0105
:10010000AD0104202A08AB00AC01AE018030AD0087
:1001100004200430AA00FA30AB002420AA0B8B285C
:08012000A10A592858286300C8
:02400E00393F38
:00000001FF
;PIC16F877A
;CRC=1479  CREATED="14-Mar-18 12:47"
