:1000000000308A00452800000A108A100A11820771
:1000100030343134323433343434353436343734A4
:1000200023080739F700230CF800F80CF80C1F30F0
:10003000F805780825078400831326188317F8012C
:10004000F80AF70A2428F80DF70B2328A408031947
:100050002C28780880042F28F809780880050800E3
:100060002230840083130008031944280130F8006B
:10007000F701F70B3928F80B38284A30F700F70B4F
:100080003F284228800B3628080003081F398300C8
:1000900007309F008313A1012108073C031C74282B
:1000A00021080420A200A3000130A400A601A5019C
:1000B00010202208A300A401A6018030A500102072
:1000C0000A30A200302021080420A200A300A401CD
:1000D000A601A50110202208A300A401A6018030DA
:1000E000A5001020A10A4C280730A10021080420F7
:1000F000A200A3000130A400A601A501102022083F
:10010000A300A401A6018030A50010200A30A2009F
:10011000302021080420A200A300A401A601A5010B
:1001200010202208A300A401A6018030A500102001
:08013000A10376284B286300AF
:02400E00213F50
:00000001FF
;PIC16F628A
;CRC=D85E  CREATED="11-May-18 11:44"
