:1000000000308A0019280000223084008313000881
:10001000031918280530F800F701F70B0D28F80B25
:100020000C282E30F700F70B13281628800B0A280F
:10003000080003081F39830083161F149F141F151F
:100040009F1107309C008313003086000610831236
:1000500006140430A100FA30A2000420A10B2B28C2
:1000600083160610831206100430A100FA30A20095
:100070000420A10B362883168610831286140430C0
:10008000A100FA30A2000420A10B4128831686109B
:10009000831286100430A100FA30A2000420A10BC4
:0800A0004C288316262863009A
:02400E00393F38
:00000001FF
;PIC16F877A
;CRC=65E9  CREATED="29-Mar-18 11:59"
