:1000000000308A00452800000A108A100A11820771
:1000100030343134323433343434353436343734A4
:1000200023080739F700230CF800F80CF80C1F30F0
:10003000F805780825078400831326188317F8012C
:10004000F80AF70A2428F80DF70B2328A408031947
:100050002C28780880042F28F809780880050800E3
:100060002330840083130008031944280130F8006A
:10007000F701F70B3928F80B38284A30F700F70B4F
:100080003F284228800B3628080003081F398300C8
:1000900083161F149F141F159F1107309C00831394
:1000A0008312A101A001A0012008073C031C8028A5
:1000B00020080420A200A3000130A400A601A5018D
:1000C00010202208A300A401A6018030A500102062
:1000D0000230A2009630A3003020A20B6A2820082C
:1000E0000420A200A300A401A601A501102022085B
:1000F000A300A401A6018030A5001020A00A542866
:100100000730A00020080420A200A3000130A400B2
:10011000A601A50110202208A300A401A601803099
:10012000A50010200230A2009630A3003020A20BC0
:10013000942820080420A200A300A401A601A50180
:1001400010202208A300A401A6018030A5001020E1
:08015000A0038228522863007D
:02400E00393F38
:00000001FF
;PIC16F877A
;CRC=F9D0  CREATED="12-May-18 23:25"
