:1000000000308A00642800004908FB3E03181D28C0
:10001000053E20281030F8001D281D280830F80063
:100020001D281D280430F8001D281D280230F80066
:100030001D281D280130F8001D288A110A123C28AD
:100040000A108A100A1182070A280E281228162878
:100050001A280130C6004508460203186328C80163
:100060004808093C031C6128C7014708043C031CDD
:100070005F284708C9000428780887004708430715
:1000800084008313441883170008C90086000130D8
:10009000C900493084008313000803195D2801302A
:1000A000F800F701F70B5228F80B51284A30F700F7
:1000B000F70B58285B28800B4F28C70A3528C80A39
:1000C0003028C60A2B28080003081F39830083162E
:1000D0001F149F141F159F1107309C0083130330BA
:1000E0008312A0007530A1007630A2007530A30005
:1000F0000330A400A5013630A600A700A8004930AF
:10010000A9004130AA003E30AB00AC00AD005D302C
:10011000AE00AF013E30B000B100B2004130B300DC
:10012000B401B630B500B600B700BE30B8007730C5
:10013000B900BA004130BB007730BC00BD006B3065
:10014000BE005D30BF00C001C1006B30C20083162D
:100150000912831290010030F800920000308316DB
:1001600092001F149F141F159F1183121F10F0304F
:1001700097059D0500308316860087008312C40111
:100180002030C3001E30C5002920C4012530C30023
:100190001E30C5002920C4012A30C3001430C50018
:1001A0002920C4012F30C3001430C5002920C40108
:1001B0003430C3001430C5002920C4013930C300D5
:1001C0001430C5002920C4013E30C3001430C500DE
:0601D0002920BF28630096
:02400E00313F40
:00000001FF
;PIC16F877A
;CRC=8937  CREATED="18-Nis-18 11:19"
