:1000000003308A00892B00000A108A100A11820727
:1000100028340C34013406340C2AF230E6346B10E8
:10002000CC306D3161100A10D53CE73AEC30ED3040
:10003000F33400002C3084008313000803192E28A9
:100040000130F800F701F70B2328F80B22284A307B
:10005000F700F70B29282C28800B20280800330EE6
:10006000F039F7000F300805770488000000081405
:100070003928081008000808F700080E0F39F800A2
:1000800008008316081088100811831288100F309A
:1000900083160805F038880083120815000008143C
:1000A00000003B207808B30008100000081400008E
:1000B0003B207808B20008100F308316080588002E
:1000C0008312330EF700F030F70577083204F8009A
:1000D0007808B200B21B4728301C881030188814EA
:1000E0000000081100000810310EB2000F30B205F8
:1000F0003208B3002F2031080F39B200B3002F208F
:1001000008000F30831608058800081088100811B1
:1001100083128810081108100F30AC001A2001302B
:10012000A7002708033C031C9D280330B3002F20A1
:100130000530AC001A20A70A91280230B3002F2006
:100140000530AC001A20A7012708033C031CB12886
:1001500027080420A800B0012808B1004120A70A00
:10016000A4288A110A12972B2D0BB728BA284030E1
:10017000AE00BB28AE0101302C02AE072E0880383D
:10018000AF00B0012F08B100412008002B08073A4A
:100190000319D4280B3A0319D928063A0319E12880
:1001A000023A0319E728EC280130AC00AD00B42076
:1001B000F128B0010130B10041200230AC001A201A
:1001C000F1280130AC000230AD00B420F128B001BC
:1001D0001030B1004120F1280130B0002B08B100EF
:1001E000412008000B08A7008B13831603178C17F8
:1001F0000C140000000083120C087F390319392900
:100200000313A80003170D080313A90003170F0811
:100210000313AA002808AB00C620290803178D0085
:1002200003132A0803178F0083168C170C14000081
:10023000000083120C0D0E0D7F39031939290313A9
:10024000A80003170D080313A90003170F080313D1
:10025000AA002808AB00C620290803178D00031345
:100260002A0803178F008D0A03198F0A0313F52834
:1002700003170313A71B8B178A110A12AA2B320824
:100280000739F700320CF800F80CF80C1F30F805AD
:10029000780834078400831335188317F801F80AA7
:1002A000F70A5329F80DF70B5229B30803195B29F4
:1002B000780880045E29F809780880050800280875
:1002C00084008313291883170008AC000130280725
:1002D00084008313291883170008AD000230280713
:1002E00084008313291883170008AE002A088400AD
:1002F00083132B1883170008AF0001302A078400EE
:1003000083132B1883170008B00002302A078400DB
:1003100083132B1883170008B100270BE0292C0842
:10032000B200B301B501B4013F212C08B200B30102
:10033000B5018030B4003F212D08B200B301B501F2
:10034000B4013F212D08B200B301B5018030B400E3
:100350003F212E08B2000130B300B501B4013F21A6
:100360002E08B200B301B5018030B4003F212F0840
:10037000B2000130B300B501B4013F212F08B20033
:10038000B301B5018030B4003F213008B200B301A1
:10039000B501B4013F213008B200B301B50180308E
:1003A000B4003F213108B200B301B501B4013F21CF
:1003B0003108B200B301B5018030B4003F21882B71
:1003C0002708023C031D342A2C08B200B301B501F2
:1003D000B4013F212C08B200B301B5018030B40054
:1003E0003F212D08B200B301B501B4013F212D0812
:1003F000B200B301B5018030B4003F212E08B20035
:10040000B301B501B4013F212E08B200B301B5011B
:100410008030B4003F212F08B2000130B300B50195
:10042000B4013F212F08B200B301B5018030B40000
:100430003F213008B200B301B501B4013F213008BB
:10044000B200B301B5018030B4003F213108B200E1
:10045000B301B501B4013F213108B200B301B501C8
:100460008030B4003F21882B2708033C031D892AD4
:100470002C08B200B301B501B4013F212C08B20031
:10048000B301B5018030B4003F212D08B200013026
:10049000B300B501B4013F212D08B200B301B5018D
:1004A0008030B4003F212E08B200B301B501B40181
:1004B0003F212E08B200B301B5018030B4003F21C6
:1004C0002F08B2000130B300B501B4013F212F085D
:1004D000B200B301B5018030B4003F213008B20052
:1004E000B301B501B4013F213008B200B301B50139
:1004F0008030B4003F213108B200B301B501B4012E
:100500003F213108B200B301B5018030B4003F2172
:10051000882B2708043C031DDE2A2C08B20001307A
:10052000B300B501B4013F212C08B200B301B501FD
:100530008030B4003F212D08B200B301B501B401F1
:100540003F212D08B200B301B5018030B4003F2136
:100550002E08B200B301B501B4013F212E08B2004C
:10056000B301B5018030B4003F212F08B200013043
:10057000B300B501B4013F212F08B200B301B501AA
:100580008030B4003F213008B200B301B501B4019E
:100590003F213008B200B301B5018030B4003F21E3
:1005A0003108B200B301B501B4013F213108B200F6
:1005B000B301B5018030B4003F21882B2708053CEA
:1005C000031D342B2C08B2000130B300B501B40177
:1005D0003F212C08B200B301B5018030B4003F21A7
:1005E0002D08B200B301B501B4013F212D08B200BE
:1005F000B301B5018030B4003F212E08B200B30131
:10060000B501B4013F212E08B200B301B50180301D
:10061000B4003F212F08B2000130B300B501B4018E
:100620003F212F08B200B301B5018030B4003F2153
:100630003008B2000130B300B501B4013F213008E9
:10064000B200B301B5018030B4003F213108B200DF
:10065000B301B501B4013F213108B200B301B501C6
:100660008030B4003F21882B2708063C031D882BCF
:100670002C08B2000130B300B501B4013F212C08B1
:10068000B200B301B5018030B4003F212D08B200A3
:10069000B301B501B4013F212D08B200B301B5018A
:1006A0008030B4003F212E08B200B301B501B4017F
:1006B0003F212E08B200B301B5018030B4003F21C4
:1006C0002F08B200B301B501B4013F212F08B200D9
:1006D000B301B5018030B4003F213008B200B3014E
:1006E000B501B4013F213008B200B301B50180303B
:1006F000B4003F213108B2000130B300B501B401AC
:100700003F213108B200B301B5018030B4003F2170
:10071000080083161F149F141F159F1107309C009B
:1007200083131F3083050030860083128128303008
:10073000A1003130A2003230A3003330A4003430A5
:10074000A5003530A6000C3003178D0000308F0057
:100750000313F2280130A700A9012130A800AB0142
:100760002430AA005F210130A700A9012130A80090
:10077000AB012430AA005F210430A700FA30AC009E
:100780001A20A70BBE2B0230A700A9012130A80018
:10079000AB012430AA005F21FA30AC001A200130EE
:1007A000A700A9012130A800AB012430AA005F21D5
:1007B000FA30AC001A200230A700A9012130A800AD
:1007C000AB012430AA005F21FA30AC001A200130BE
:1007D000A700A9012130A800AB012430AA005F21A5
:1007E000FA30AC001A200230A700A9012130A8007D
:1007F000AB012430AA005F21FA30AC001A2003308C
:10080000A700A9012130A800AB012430AA005F2174
:100810000430A700FA30AC001A20A70B0A2C0430D1
:10082000A700A9012130A800AB012430AA005F2154
:100830000230A700FA30AC001A20A70B1A2C0530A2
:10084000A700A9012130A800AB012430AA005F2134
:100850000430A700FA30AC001A20A70B2A2C06306F
:10086000A700A9012130A800AB012430AA005F2114
:100870000130A700A9012430A800AB012130AA0053
:100880005F210430A700FA30AC001A20A70B432CDC
:100890000230A700A9012430A800AB012130AA0032
:1008A0005F21FA30AC001A200130A700A9012430E2
:1008B000A800AB012130AA005F21FA30AC001A2059
:1008C0000230A700A9012430A800AB012130AA0002
:1008D0005F21FA30AC001A200130A700A9012430B2
:1008E000A800AB012130AA005F21FA30AC001A2029
:1008F0000230A700A9012430A800AB012130AA00D2
:100900005F21FA30AC001A200130A700A901243081
:10091000A800AB012130AA005F21FA30AC001A20F8
:100920000230A700A9012430A800AB012130AA00A1
:100930005F21FA30AC001A200330A700A90124304F
:10094000A800AB012130AA005F210430A700FA30D3
:10095000AC001A20A70BA72C0430A700A901243053
:10096000A800AB012130AA005F210230A700FA30B5
:10097000AC001A20A70BB72C0530A700A901243022
:10098000A800AB012130AA005F210430A700FA3093
:10099000AC001A20A70BC72C0630A700A9012430F1
:0E09A000A800AB012130AA005F21B32B630039
:02400E00393F38
:00000001FF
;PIC16F877A
;CRC=946E  CREATED="22-Nis-17 14:53"
